{
  "contractName": "ChainList",
  "abi": [
    {
      "constant": true,
      "inputs": [
        {
          "name": "",
          "type": "uint256"
        }
      ],
      "name": "articles",
      "outputs": [
        {
          "name": "id",
          "type": "uint256"
        },
        {
          "name": "seller",
          "type": "address"
        },
        {
          "name": "buyer",
          "type": "address"
        },
        {
          "name": "name",
          "type": "string"
        },
        {
          "name": "description",
          "type": "string"
        },
        {
          "name": "price",
          "type": "uint256"
        }
      ],
      "payable": false,
      "stateMutability": "view",
      "type": "function"
    },
    {
      "anonymous": false,
      "inputs": [
        {
          "indexed": true,
          "name": "_id",
          "type": "uint256"
        },
        {
          "indexed": true,
          "name": "_seller",
          "type": "address"
        },
        {
          "indexed": false,
          "name": "_name",
          "type": "string"
        },
        {
          "indexed": false,
          "name": "_price",
          "type": "uint256"
        }
      ],
      "name": "LogSellArticle",
      "type": "event"
    },
    {
      "anonymous": false,
      "inputs": [
        {
          "indexed": true,
          "name": "_id",
          "type": "uint256"
        },
        {
          "indexed": true,
          "name": "_seller",
          "type": "address"
        },
        {
          "indexed": true,
          "name": "_buyer",
          "type": "address"
        },
        {
          "indexed": false,
          "name": "_name",
          "type": "string"
        },
        {
          "indexed": false,
          "name": "_price",
          "type": "uint256"
        }
      ],
      "name": "LogBuyArticle",
      "type": "event"
    },
    {
      "constant": false,
      "inputs": [],
      "name": "kill",
      "outputs": [],
      "payable": false,
      "stateMutability": "nonpayable",
      "type": "function"
    },
    {
      "constant": false,
      "inputs": [
        {
          "name": "_name",
          "type": "string"
        },
        {
          "name": "_description",
          "type": "string"
        },
        {
          "name": "_price",
          "type": "uint256"
        }
      ],
      "name": "sellArticle",
      "outputs": [],
      "payable": false,
      "stateMutability": "nonpayable",
      "type": "function"
    },
    {
      "constant": true,
      "inputs": [],
      "name": "getArticle",
      "outputs": [
        {
          "name": "_seller",
          "type": "address"
        },
        {
          "name": "_buyer",
          "type": "address"
        },
        {
          "name": "_name",
          "type": "string"
        },
        {
          "name": "_description",
          "type": "string"
        },
        {
          "name": "_price",
          "type": "uint256"
        }
      ],
      "payable": false,
      "stateMutability": "view",
      "type": "function"
    },
    {
      "constant": true,
      "inputs": [],
      "name": "getNumberOfArticles",
      "outputs": [
        {
          "name": "",
          "type": "uint256"
        }
      ],
      "payable": false,
      "stateMutability": "view",
      "type": "function"
    },
    {
      "constant": true,
      "inputs": [],
      "name": "getArticlesForSale",
      "outputs": [
        {
          "name": "",
          "type": "uint256[]"
        }
      ],
      "payable": false,
      "stateMutability": "view",
      "type": "function"
    },
    {
      "constant": false,
      "inputs": [
        {
          "name": "_id",
          "type": "uint256"
        }
      ],
      "name": "buyArticle",
      "outputs": [],
      "payable": true,
      "stateMutability": "payable",
      "type": "function"
    }
  ],
  "bytecode": "0x6060604052336000806101000a81548173ffffffffffffffffffffffffffffffffffffffff021916908373ffffffffffffffffffffffffffffffffffffffff160217905550610dc5806100536000396000f300606060405260043610610083576000357c0100000000000000000000000000000000000000000000000000000000900463ffffffff1680631cc4baa81461008857806341c0e1b5146100a05780637f6be3da146100b557806389da85d31461011f578063c37218a614610148578063d2609515146102af578063edcfafe614610358575b600080fd5b61009e600480803590602001909190505061050e565b005b34156100ab57600080fd5b6100b36107f6565b005b34156100c057600080fd5b6100c861088b565b6040518080602001828103825283818151815260200191508051906020019060200280838360005b8381101561010b5780820151818401526020810190506100f0565b505050509050019250505060405180910390f35b341561012a57600080fd5b6101326109f7565b6040518082815260200191505060405180910390f35b341561015357600080fd5b61015b610a01565b604051808673ffffffffffffffffffffffffffffffffffffffff1673ffffffffffffffffffffffffffffffffffffffff1681526020018573ffffffffffffffffffffffffffffffffffffffff1673ffffffffffffffffffffffffffffffffffffffff1681526020018060200180602001848152602001838103835286818151815260200191508051906020019080838360005b838110156102095780820151818401526020810190506101ee565b50505050905090810190601f1680156102365780820380516001836020036101000a031916815260200191505b50838103825285818151815260200191508051906020019080838360005b8381101561026f578082015181840152602081019050610254565b50505050905090810190601f16801561029c5780820380516001836020036101000a031916815260200191505b5097505050505050505060405180910390f35b34156102ba57600080fd5b610356600480803590602001908201803590602001908080601f0160208091040260200160405190810160405280939291908181526020018383808284378201915050505050509190803590602001908201803590602001908080601f01602080910402602001604051908101604052809392919081815260200183838082843782019150505050505091908035906020019091905050610a2c565b005b341561036357600080fd5b6103796004808035906020019091905050610c52565b604051808781526020018673ffffffffffffffffffffffffffffffffffffffff1673ffffffffffffffffffffffffffffffffffffffff1681526020018573ffffffffffffffffffffffffffffffffffffffff1673ffffffffffffffffffffffffffffffffffffffff16815260200180602001806020018481526020018381038352868181546001816001161561010002031660029004815260200191508054600181600116156101000203166002900480156104765780601f1061044b57610100808354040283529160200191610476565b820191906000526020600020905b81548152906001019060200180831161045957829003601f168201915b50508381038252858181546001816001161561010002031660029004815260200191508054600181600116156101000203166002900480156104f95780601f106104ce576101008083540402835291602001916104f9565b820191906000526020600020905b8154815290600101906020018083116104dc57829003601f168201915b50509850505050505050505060405180910390f35b60008060025411151561052057600080fd5b60008211801561053257506002548211155b151561053d57600080fd5b60016000838152602001908152602001600020905060008160020160009054906101000a900473ffffffffffffffffffffffffffffffffffffffff1673ffffffffffffffffffffffffffffffffffffffff1614151561059b57600080fd5b8060010160009054906101000a900473ffffffffffffffffffffffffffffffffffffffff1673ffffffffffffffffffffffffffffffffffffffff163373ffffffffffffffffffffffffffffffffffffffff16141515156105fa57600080fd5b80600501543414151561060c57600080fd5b338160020160006101000a81548173ffffffffffffffffffffffffffffffffffffffff021916908373ffffffffffffffffffffffffffffffffffffffff1602179055508060010160009054906101000a900473ffffffffffffffffffffffffffffffffffffffff1673ffffffffffffffffffffffffffffffffffffffff166108fc349081150290604051600060405180830381858888f1935050505015156106b357600080fd5b8060020160009054906101000a900473ffffffffffffffffffffffffffffffffffffffff1673ffffffffffffffffffffffffffffffffffffffff168160010160009054906101000a900473ffffffffffffffffffffffffffffffffffffffff1673ffffffffffffffffffffffffffffffffffffffff16837f5d28bc06e6f0c45405abfe77bd77236c767f9bd9d044ae2d954a415a2b4823e084600301856005015460405180806020018381526020018281038252848181546001816001161561010002031660029004815260200191508054600181600116156101000203166002900480156107e35780601f106107b8576101008083540402835291602001916107e3565b820191906000526020600020905b8154815290600101906020018083116107c657829003601f168201915b5050935050505060405180910390a45050565b6000809054906101000a900473ffffffffffffffffffffffffffffffffffffffff1673ffffffffffffffffffffffffffffffffffffffff163373ffffffffffffffffffffffffffffffffffffffff1614151561085157600080fd5b6000809054906101000a900473ffffffffffffffffffffffffffffffffffffffff1673ffffffffffffffffffffffffffffffffffffffff16ff5b610893610ccc565b61089b610ccc565b6000806108a6610ccc565b60006002546040518059106108b85750595b9080825280602002602001820160405250945060009350600192505b6002548311151561097d5760006001600085815260200190815260200160002060020160009054906101000a900473ffffffffffffffffffffffffffffffffffffffff1673ffffffffffffffffffffffffffffffffffffffff161415610970576001600084815260200190815260200160002060000154858581518110151561095957fe5b906020019060200201818152505083806001019450505b82806001019350506108d4565b8360405180591061098b5750595b90808252806020026020018201604052509150600090505b838110156109ec5784818151811015156109b957fe5b9060200190602002015182828151811015156109d157fe5b906020019060200201818152505080806001019150506109a3565b819550505050505090565b6000600254905090565b600080610a0c610ce0565b610a14610ce0565b60003384848484945094509450945094509091929394565b60026000815480929190600101919050555060c06040519081016040528060025481526020013373ffffffffffffffffffffffffffffffffffffffff168152602001600073ffffffffffffffffffffffffffffffffffffffff168152602001848152602001838152602001828152506001600060025481526020019081526020016000206000820151816000015560208201518160010160006101000a81548173ffffffffffffffffffffffffffffffffffffffff021916908373ffffffffffffffffffffffffffffffffffffffff16021790555060408201518160020160006101000a81548173ffffffffffffffffffffffffffffffffffffffff021916908373ffffffffffffffffffffffffffffffffffffffff1602179055506060820151816003019080519060200190610b64929190610cf4565b506080820151816004019080519060200190610b81929190610cf4565b5060a082015181600501559050503373ffffffffffffffffffffffffffffffffffffffff166002547fe2ebb0c522a8b90a93f45a5dfd3c0e0516b81519fdf199efe51c474642fe8cec85846040518080602001838152602001828103825284818151815260200191508051906020019080838360005b83811015610c12578082015181840152602081019050610bf7565b50505050905090810190601f168015610c3f5780820380516001836020036101000a031916815260200191505b50935050505060405180910390a3505050565b60016020528060005260406000206000915090508060000154908060010160009054906101000a900473ffffffffffffffffffffffffffffffffffffffff16908060020160009054906101000a900473ffffffffffffffffffffffffffffffffffffffff1690806003019080600401908060050154905086565b602060405190810160405280600081525090565b602060405190810160405280600081525090565b828054600181600116156101000203166002900490600052602060002090601f016020900481019282601f10610d3557805160ff1916838001178555610d63565b82800160010185558215610d63579182015b82811115610d62578251825591602001919060010190610d47565b5b509050610d709190610d74565b5090565b610d9691905b80821115610d92576000816000905550600101610d7a565b5090565b905600a165627a7a72305820c419bc9a6d5a8938745d1bd3ec50a7b37a4ed335028852fb0b6c5660dc4c8f8b0029",
  "source": "pragma solidity ^0.4.18;\r\n\r\nimport \"./Ownable.sol\";\r\n\r\n\r\ncontract ChainList is Ownable {\r\n  //custom type\r\n  struct Article{\r\n    uint id;\r\n    address seller;\r\n    address buyer;\r\n    string name;\r\n    string description;\r\n    uint256 price;\r\n  }\r\n\r\n  // state variables\r\n  mapping(uint => Article) public articles;\r\n  uint articleCounter;\r\n\r\n\r\n\r\n  //events\r\n  event LogSellArticle(\r\n    uint indexed _id,\r\n    address indexed _seller,\r\n    string _name,\r\n    uint _price\r\n    );\r\n\r\n    event LogBuyArticle(\r\n      uint indexed _id,\r\n      address indexed _seller,\r\n      address indexed _buyer,\r\n      string _name,\r\n      uint256 _price\r\n      );\r\n\r\n  \r\n    //deactivate the contract\r\n    function kill() public onlyOwner{\r\n\r\n      selfdestruct(owner);\r\n    }\r\n\r\n  /*function ChainList() public{\r\n    sellArticle(\"Default Article\",\"This ia an article by default\",1000000000000000000);\r\n  }*/\r\n\r\n  // sell an article\r\n  function sellArticle(string _name, string _description, uint256 _price) public {\r\n    //a new articel\r\n    articleCounter++;\r\n\r\n    articles[articleCounter] = Article(\r\n        articleCounter,\r\n        msg.sender,\r\n        0x0,\r\n        _name,\r\n        _description,\r\n        _price\r\n      );\r\n\r\n    LogSellArticle(articleCounter, msg.sender,_name,_price);\r\n  }\r\n\r\n  // get an article\r\n  function getArticle() public view returns (\r\n    address _seller,\r\n    address _buyer,\r\n    string _name,\r\n    string _description,\r\n    uint256 _price\r\n  ) {\r\n      return(msg.sender, _buyer, _name, _description, _price);\r\n  }\r\n\r\n  //detach the number of articles in the contract\r\n  function getNumberOfArticles() public view returns (uint){\r\n    return articleCounter;\r\n  }\r\n\r\n  //fetch and return all articles IDs for articles still on sale\r\n  function getArticlesForSale() public view returns (uint[]){\r\n    uint[] memory articleIds = new uint[](articleCounter);\r\n\r\n    uint numberOfArticlesForSale = 0;\r\n\r\n    //iterate over articleIds\r\n    for(uint i=1;i<=articleCounter;i++){\r\n      if(articles[i].buyer == 0x0){\r\n        articleIds[numberOfArticlesForSale] = articles[i].id;\r\n        numberOfArticlesForSale++;\r\n      }\r\n    }\r\n\r\n    //create for sale array\r\n    uint[] memory forSale = new uint[](numberOfArticlesForSale);\r\n    for(uint j=0; j< numberOfArticlesForSale;j++){\r\n      forSale[j] = articleIds[j];\r\n    }\r\n\r\n    return forSale;\r\n  }\r\n\r\n  //buy an Article\r\n  function buyArticle(uint _id) payable public{\r\n    //check if an article is for sellArticle\r\n    require(articleCounter > 0);\r\n\r\n    //check if article really exists\r\n    require(_id > 0 && _id <= articleCounter);\r\n\r\n    //retrieve the article from te mapping\r\n    Article storage article = articles[_id];\r\n\r\n    //check article not sold yet\r\n    require(article.buyer == 0X0);\r\n\r\n    //check seller cannot buy\r\n    require(msg.sender != article.seller);\r\n\r\n    //check price sent is what seller is asking for\r\n    require(msg.value == article.price);\r\n\r\n    //keep buyers info\r\n    article.buyer = msg.sender;\r\n\r\n    //buyer pays _seller\r\n    article.seller.transfer(msg.value);\r\n\r\n    //trigger the events\r\n    LogBuyArticle(_id, article.seller,article.buyer,article.name,article.price);\r\n  }\r\n}\r\n",
  "sourcePath": "C:\\BlockChain\\ChainSkills\\Training\\chainlist\\contracts\\ChainList.sol",
  "compiler": {
    "name": "solc",
    "version": "0.4.19+commit.c4cbbb05.Emscripten.clang"
  },
  "schemaVersion": "2.0.0",
  "updatedAt": "2018-09-07T15:20:04.073Z"
}